:020000040800F2
:1000000018050020D90C0008DD030008DF030008F4
:10001000E3030008E7030008EB030008000000000A
:10002000000000000000000000000000EF030008D6
:10003000F103000800000000F3030008F5030008C6
:10004000F30C0008F30C0008F30C0008F30C000894
:10005000F30C0008F30C0008F30C0008F30C000884
:10006000F30C0008F30C0008F30C0008F30C000874
:10007000F30C0008F30C0008F30C0008F30C000864
:10008000F30C0008F30C0008F30C0008F30C000854
:10009000F30C0008F30C0008F30C0008F30C000844
:1000A000F30C0008F30C0008F30C0008F30C000834
:1000B000F30C0008F30C0008F30C0008F30C000824
:1000C000F30C0008F30C0008F30C0008F30C000814
:1000D000F30C0008EB080008F30C0008F30C000810
:1000E000F30C0008F30C0008F30C0008F30C0008F4
:1000F000F30C0008F30C0008F30C0008F30C0008E4
:10010000F30C0008F30C0008F30C0008F30C0008D3
:10011000F30C0008F30C0008F30C0008F30C0008C3
:10012000F30C0008F30C0008F30C0008F30C0008B3
:10013000DFF80CD001F0F8FE00480047610300082A
:10014000180500202DE9FC4781460C46204601F0A9
:10015000FFFB05460E46484601F0FAFB07463A46C5
:100160000B468CA0CDE9005602F0B2F9BDE8FC8741
:100170002DE9F04107460E4614461D46DDF818806D
:1001800088480088072875D18748006840F24C42AB
:10019000811A90423BD00EDC6E2850D004DC0B2834
:1001A0005DD0652864D152E0A0F2E93000283ED04D
:1001B00009285DD133E0A1F50850C538F8B1092808
:1001C00015D063280BD0A0F2E730002850D164206E
:1001D00000F055FD31463846FFF7B4FF49E0642092
:1001E00000F04DFD21463846FFF7ACFF41E06420AA
:1001F00000F045FD29463846FFF7A4FF39E06420AA
:1002000000F03DFD41463846FFF79CFF31E0642099
:1002100000F035FD21463046FFF794FF29E06420C9
:1002200000F02DFD29463046FFF78CFF21E06420C9
:1002300000F025FD41463046FFF784FF19E06420B9
:1002400000F01DFD29462046FFF77CFF11E06420E9
:1002500000F015FD41462046FFF774FF09E06420D9
:1002600000F00DFD41462846FFF76CFF01E001E07C
:1002700000BF00BFBDE8F08170B54A480088012882
:100280000DD14A48006801F063FB044622460B4644
:1002900047A002F01DF90020424908805FE0414874
:1002A000008802280DD14348006801F051FB044644
:1002B00022460B463EA002F00BF900203949088087
:1002C0004DE03848008803280DD13B48006801F014
:1002D0003FFB044622460B4635A002F0F9F8002009
:1002E000304908803BE02F48008804280DD133486E
:1002F000006801F02DFB044622460B462CA002F0BC
:10030000E7F800202749088029E0264800880528CA
:100310000DD12B48006801F01BFB044622460B461A
:1003200023A002F0D5F800201E49088017E01D48E0
:10033000008806280DD12348006801F009FB044617
:1003400022460B461AA002F0C3F800201549088087
:1003500005E01448008810B900201249088070BDDB
:1003600008B500F04FFC00F0B6F84FF4E13000F0B3
:1003700033F94FF4A06000F0C1FC09E0FFF77CFF07
:100380001148124B124A134900901348FFF7F0FE30
:10039000F4E700005A2325662358232566230D0A17
:1003A0000000000034000020A400002068000020AD
:1003B00025660000740000206C00002078000020FA
:1003C000700000207C00002066664842666620427D
:1003D000CDCCF041CDCCA0419A992141704700BFCE
:1003E000FEE700BFFEE700BFFEE700BFFEE7704785
:1003F00070477047704700000CB5002001900090D6
:100400006C48006840F480306A49086000BF694861
:10041000006800F4003000900198401C01900098A2
:1004200018B90198B0F5A06FF1D16248006800F4E6
:10043000003010B10120009001E0002000900098F1
:10044000012843D15C48006840F010005A49086018
:100450000846006820F0030008600846006840F085
:1004600002000860534840685249486008464068A6
:1004700048600846406840F480604860084640682C
:1004800020F47C1048600846406840F4E81048605A
:100490000846006840F08070086000BF454800686A
:1004A00000F000700028F9D04248406820F00300B6
:1004B000404948600846406840F00200486000BF7C
:1004C0003C48406800F00C000828F9D10CBD10B57C
:1004D000FFF792FF10BD10B53648006840F00100EC
:1004E000344908600846406834490840314948604A
:1004F00008460068324908402E49086008460068EE
:1005000020F4802008600846406820F4FE0048601F
:100510004FF41F008860FFF7DAFF4FF000602949B1
:10052000086010BD10B5002100200022214B5B683F
:1005300003F00C0121B1042906D0082928D107E0D5
:10054000214B224C236027E01F4B204C236023E0EB
:10055000184B5B6803F47010164B5B6803F4803231
:10056000022303EB904022B9194B4343174C2360FD
:100570000DE0104B5B6803F4003323B1144B43438D
:10058000124C236003E0104B4343104C236003E004
:100590000D4B0E4C236000BF00BF064B5B68C3F3DE
:1005A00003130C4CE15C094B1B68CB40074C2360E8
:1005B00010BD000000100240002002400000FFF8C3
:1005C000FFFFF6FE08ED00E000127A0000000020B8
:1005D00000093D000400002010B586B0044601214A
:1005E00044F2040000F014FF4FF40070ADF8140062
:1005F00018208DF8170003208DF8160005A9FE4875
:1006000000F04AFC4FF48060ADF8140004208DF82F
:10061000170005A9F84800F03FFC25208DF81000D0
:1006200002208DF8110000208DF8120001208DF8B5
:10063000130004A800F067FB0C20ADF80A000020AE
:10064000ADF808000094ADF80600ADF80400ADF870
:100650000C006946E94800F082FF012240F2255172
:10066000E64801F014F80121E44801F004F806B06E
:1006700010BD10B586B004460121480400F0D5FE37
:100680000121042000F0C4FE0420ADF8140018205D
:100690008DF8170003208DF8160005A9D64800F044
:1006A000FBFB0820ADF8140004208DF8170005A905
:1006B000D14800F0F1FB26208DF8100002208DF8C3
:1006C000110001208DF812008DF8130004A800F02D
:1006D0001AFB0C20ADF80A000020ADF808000094C9
:1006E000ADF80600ADF80400ADF80C006946C4484A
:1006F00000F035FF012240F22551C14800F0C7FF4C
:100700000121BF4800F0B7FF06B010BD10B586B09C
:1007100004460121880400F088FE0121082000F031
:1007200077FE4FF48060ADF8140018208DF81700A4
:1007300003208DF8160005A9AF4800F0ADFB4FF47B
:100740000060ADF8140004208DF8170003208DF828
:10075000160005A9A84800F09FFB27208DF810007F
:1007600002208DF8110000208DF8120001208DF874
:10077000130004A800F0C7FA0C20ADF80A0000200E
:10078000ADF808000094ADF80600ADF80400ADF82F
:100790000C006946994800F0E2FE012240F2255122
:1007A000984800F074FF0121944800F064FF06B0FF
:1007B00010BD70B504460D46E1B2904800F0C8FF88
:1007C00000BF80218D4801F031F80028F9D0204683
:1007D00070BD10B504462146884800F0B9FF00BF3F
:1007E0004021864801F022F80028F9D010BD10B54C
:1007F00004462146824800F0ABFF00BF40218048FC
:1008000001F014F80028F9D010BD10B504462146B7
:100810007C4800F09DFF00BF40217A4801F006F8B7
:100820000028F9D010BD70B504460D46002605E03D
:1008300014F8010BFFF7CDFF701CC6B2AE42F7DB18
:1008400070BD70B504460D46002605E014F8010B96
:10085000FFF7CDFF701CC6B2AE42F7DB70BD70B5BE
:1008600004460D46002605E014F8010BFFF7CDFF06
:10087000701CC6B2AE42F7DB70BD0021624A116047
:1008800008E00021604A126881545F490968491CE8
:100890005D4A11605C4909680629F2DB70472DE961
:1008A000F04781460F461546984600240026294603
:1008B000484601F027F804464146484601F022F830
:1008C000064614B10EB1B44203D950A001F000FEA7
:1008D00008E0284601F028F80444321B2146384637
:1008E00000F0FEFF0020BDE8F08770B540F2255112
:1008F000424800F0B1FF00287CD0404800F02CFFB7
:100900004849494A1268885447480068401C46498B
:10091000086008460068401E4249085C232803D04E
:1009200041480068282829D13E480078422817D13C
:1009300007203E4908803EA33EA23F493948FFF7C1
:10094000AEFF3D4800F0F7FF3C490860062000F08C
:1009500096F93948FFF791FF00203349086027E1F5
:1009600030480078532805D10020304908802E49AE
:1009700008601DE100202C49086019E12A48006840
:10098000401E2849085C502803D0274800682828C2
:1009900071D12448007857281AD1012023490880B2
:1009A00027A328A224491F48FFF779FF224802F015
:1009B00010FA044600F0DFFF23490860062000F02B
:1009C0005EF91D48FFF759FF002017490860EFE066
:1009D00014480078562849D102201449088018A3E9
:1009E0001AA215490F48FFF75AFF134802F0F1F910
:1009F00004462DE0E2E0000000080140003801401C
:100A000000440040004800401C0000204D61696C1B
:100A1000206E616D65206E6F7420666F756E642147
:100A20000A000000C800002014000020340000204C
:100A3000230000004200000036000020A400002037
:100A40005000000057000000680000205600000021
:100A500000F091FF5F490860062000F010F95E4841
:100A6000FFF70BFF00205D490860A1E000205B4913
:100A700008609DE0FFE759480068401E5849085C3F
:100A8000492803D055480068282843D154480078A5
:100A900057281BD103205349088053A3AFF25C02AF
:100AA0004D494F48FFF7FBFE4B4802F092F90446D0
:100AB00000F061FF4D490860062000F0E0F846486C
:100AC000FFF7DBFE00204549086071E044480078EC
:100AD00056281BD104204349088043A3AFF2940257
:100AE0003D493F48FFF7DBFE3B4802F072F9044600
:100AF00000F041FF3E490860062000F0C0F836488B
:100B0000FFF7BBFE00203549086051E00020334963
:100B100008604DE031480068401E3149085C4428B7
:100B200003D02E480068282842D12D480078572845
:100B30001BD105202B4908802EA3AFF2F8022649CD
:100B40002748FFF7ACFE244802F043F9044600F0C2
:100B500012FF29490860062000F091F81E48FFF7AF
:100B60008CFE00201D49086022E01D4800785628B0
:100B70001BD106201B4908801EA3AFF23012164974
:100B80001748FFF78CFE144802F023F9044600F0E2
:100B9000F2FE1A490860062000F071F80E48FFF7CF
:100BA0006CFE00200D49086002E000200B4908603F
:100BB00040F22551124800F079FE0AE040F2277118
:100BC0000F4800F049FE20B140F227710C4800F0B8
:100BD0006DFE70BD7400002036000020140000205F
:100BE000C800002034000020490000006C000020F4
:100BF0007800002044000000700000207C000020ED
:100C00000038014010B56FF0040000F0C6F82E481F
:100C100000682E49B0FBF1F02D49087008460078B5
:100C200000EB4001C1EBC0104FF6FF7101EAC000BC
:100C30002849088010BD0146254A12784A434FF0E2
:100C4000E0235A6100229A611A46126942F00102B9
:100C50001A6100BF4FF0E022106900F001021AB1E2
:100C600000F48032002AF5D04FF0E022126922F021
:100C700001024FF0E0231A6100229A617047014699
:100C8000144A12884A434FF0E0235A6100229A61C5
:100C90001A46126942F001021A6100BF4FF0E022C9
:100CA000106900F001021AB100F48032002AF5D078
:100CB0004FF0E022126922F001024FF0E0231A61A6
:100CC00000229A61704700000000002000127A00A4
:100CD000A8000020AA0000200648804706480047D8
:100CE000FEE7FEE7FEE7FEE7FEE7FEE7FEE7FEE7DC
:100CF000FEE7FEE7D704000831010008314901434F
:100D0000314A1160704770B5002100230F22C4786A
:100D100004B32D4C246804F4E064C4F5E064210AB3
:100D2000C1F10403CA40447804FA03F18478144002
:100D300021430901254C0678A155047804F01F05CC
:100D40000124AC4005786D11AD0005F1E025C5F832
:100D5000004109E0047804F01F050124AC401C4D5B
:100D60000678761145F8264070BD1A4A0A400243BB
:100D7000154B1B1F1A60704739B1134A121D1268B8
:100D80000243114B1B1D1A6006E00F4A121D126828
:100D900082430D4B1B1D1A607047042808D14FF089
:100DA000E021096941F004014FF0E022116107E000
:100DB0004FF0E021096921F004014FF0E0221161B8
:100DC000704700000000FA050CED00E000E400E0D0
:100DD00080E100E080FFFF1F10B50446CC4884424C
:100DE00008D10121042000F02DFB0021042000F097
:100DF00029FB46E0C748844208D10121082000F0C1
:100E000021FB0021082000F01DFB3AE0C24884428B
:100E100008D10121102000F015FB0021102000F066
:100E200011FB2EE0BD48844208D10121202000F0B2
:100E300009FB0021202000F005FB22E0B848844295
:100E400008D10121402000F0FDFA0021402000F0EF
:100E5000F9FA16E0B348844208D10121802000F05D
:100E6000F1FA0021802000F0EDFA0AE0AE48844259
:100E700007D10121801500F0E5FA0021A01500F04E
:100E8000E1FA10BD10B50121084600F0DBFA00219F
:100E9000012000F0D7FA10BD2DE9F04102460025EF
:100EA0000026002000230024002791F803C00CF046
:100EB0000F0591F803C00CF0100CBCF1000F03D02B
:100EC00091F802C04CEA050591F800C0BCF1000F92
:100ED00031D0146800202BE04FF0010C0CFA00F325
:100EE000B1F800C00CEA03069E4220D183004FF007
:100EF0000F0C0CFA03F7BC4305FA03FC4CEA04049C
:100F000091F803C0BCF1280F06D14FF0010C0CFA88
:100F100000FCC2F814C00AE091F803C0BCF1480F0D
:100F200005D14FF0010C0CFA00FCC2F810C0401CB7
:100F30000828D1D31460B1F800C0BCF1FF0F34DD34
:100F4000546800202EE000F1080C4FF0010808FA68
:100F50000CF3B1F800C00CEA03069E4221D18300D5
:100F60004FF00F0C0CFA03F7BC4305FA03FC4CEAF4
:100F7000040491F803C0BCF1280F05D100F1080C5E
:100F800008FA0CF8C2F8148091F803C0BCF1480FBD
:100F900007D100F1080C4FF0010808FA0CF8C2F86C
:100FA0001080401C0828CED35460BDE8F0814FF675
:100FB000FF710180022181700421C17070470246D7
:100FC000002093680B400BB1012000E00020704727
:100FD0000146886880B2704702460020D3680B4003
:100FE0000BB1012000E0002070470146C86880B2C4
:100FF000704701617047416170470AB1016100E0CB
:1010000041617047C16070474FF480320A4382618A
:101010008161826182698269704702460020434B88
:1010200018684FF68073184040EA021008433F4B9F
:10103000186070473E49C8617047F0B50A46002302
:1010400000240021002500F00046B6F1004F02D137
:10105000364EF16901E0354E7168C0F3034583B245
:1010600000F44016B6F5401F08D121F070612F4EF4
:10107000766826F070662D4F7E6012E000F48016D0
:10108000B6F5801F06D1032606FA05F4A14341F008
:10109000706106E0460D360103FA06F6B14341F0F1
:1010A000706122B1460D360103FA06F6314300F0B5
:1010B0000046B6F1004F02D11C4EF16101E01B4E1B
:1010C0007160F0BD30B500228B071C0F0F2303FAAF
:1010D00004F2164B08338C1053F824309343134C0E
:1010E00008348D1044F8253023468C1053F82430F2
:1010F0008C07240F00FA04F423430C4C08348D10A1
:1011000044F8253030BD0A49DC31086070470000E2
:1011100000080140000C0140001001400014014093
:1011200000180140001C0140002001400000014067
:1011300000002042DF48006840F00100DD490860FF
:1011400008464068DC490840DA49486008460068BB
:10115000DA490840D74908600846006820F4802032
:1011600008600846406820F4FE0048604FF41F0005
:1011700088607047CF49096821F48031CD4A1160F9
:101180001146096821F480211160B0F5803F03D039
:10119000B0F5802F0ED106E0C649096841F48031D0
:1011A000C44A116007E0C349096841F4A021C14A5B
:1011B000116000E000BF00BF704710B5014600227B
:1011C000002300204A11012A02D1BA4C236806E00C
:1011D000022A02D1B74C236A01E0B64C636A01F0DF
:1011E0001F02012494401C400CB1012000E00020AB
:1011F00010BD38B5002000900024002500BF31202C
:10120000FFF7DBFF05460098401C00900098B0F502
:10121000A06F01D0002DF2D03120FFF7CEFF08B132
:10122000012400E00024204638BD01460020A14AE8
:10123000106820F0F80040EAC10010607047A04933
:1012400008607047024600209A4B586820F47C10D2
:1012500042EA01031843974B586070479849086663
:10126000704701460020934A506820F0030008436D
:10127000506070478F48406800F00C00704701468E
:1012800000208C4A506820F0F000084350607047FE
:1012900001460020874A506820F4E060084350600F
:1012A000704701460020834A506820F4605040EAAD
:1012B000C1005060704729B17E4A527A02437D4B8B
:1012C0005A7204E07B4A527A82437A4B5A727047D0
:1012D0007B49D8310860704701460020754A506844
:1012E00020F440400843506070470021714A20328A
:1012F0001170704A82F82010012802D004280AD107
:1013000004E001216B4A2032117005E00521694A91
:101310002032117000E000BF00BF704769490860CB
:1013200070476449096A0143624A1162704765491E
:1013300044390860704730B50021002200240023A2
:101340005C4D6D6805F00C0121B1042905D0082918
:1013500023D105E05C4D056022E05B4D05601FE098
:10136000544D6D6805F47012524D6D6805F480346B
:10137000022505EB92421CB9544D554305600BE024
:101380004C4D6D6805F400351DB1504D5543056059
:1013900002E04D4D5543056002E04B4D056000BF36
:1013A00000BF444D6D6805F0F0010909484D6B5CC4
:1013B0000568DD4045603F4D6D6805F4E061090A50
:1013C000434D6B5C4568DD4085603A4D6D6805F4C2
:1013D0006051C90A3E4D6B5C4568DD40C560354DC6
:1013E0006D6805F44041890B3A4D6B5CC568B5FBEF
:1013F000F3F5056130BD29B12E4A526902432D4BE8
:101400005A6104E02B4A526982432A4B5A61704761
:1014100029B1284A92690243264B9A6104E0254A81
:1014200092698243234B9A61704729B1214AD2695C
:101430000243204BDA6104E01E4AD26982431D4B0D
:10144000DA61704729B11B4AD2680243194BDA604E
:1014500004E0184AD2688243164BDA60704729B11B
:10146000144A12690243134B1A6104E0114A1269CB
:101470008243104B1A617047124940390860704727
:101480000F49C86470470B49C87170470948406AE2
:1014900040F0807007494862704701460020054AC5
:1014A00092680A400AB1012000E00020704701491B
:1014B00088727047001002400000FFF8FFFFF6FE40
:1014C000000042428004424200127A0000093D00BE
:1014D000AC000020BC00002010B50446FB4884424C
:1014E00009D101218803FFF7ADFF00214FF48040AF
:1014F000FFF7A8FF32E0F648844209D101214804F1
:10150000FFF7ADFF00214FF40030FFF7A8FF25E003
:10151000F048844209D101218804FFF7A0FF00218F
:101520004FF48020FFF79BFF18E0EB48844209D17D
:101530000121C804FFF793FF00214FF40020FFF7BB
:101540008EFF0BE0E548844208D101210805FFF732
:1015500086FF00214FF48010FFF781FF10BD2DE9B9
:10156000F04786B005460E460024A24600BFA146BD
:101570000027B08900B100BF2F462C8A4CF6FF70BF
:101580000440F08804432C82AC894EF6F3100440EA
:10159000B08831890843718908430443AC81AC8A1F
:1015A0004FF6FF400440B0890443AC8201A8FFF726
:1015B000C2FEC648874202D1DDF810A001E0DDF886
:1015C0000CA0A88900F4004040B10AEBCA0000EB6F
:1015D0000A1031684900B0FBF1F807E00AEBCA00D5
:1015E00000EB0A1031688900B0FBF1F86420B8FB09
:1015F000F0F004012009642101FB1089A88900F49E
:10160000004040B1322000EBC900B0FBF1F000F027
:101610000700044308E0322000EB09106421B0FB0E
:10162000F1F000F00F0004432C8106B0BDE8F08714
:101630004FF41651016000218180C18001810C218D
:10164000418100218181704710B502460020108A37
:101650004FF2FF0318400B884C8823438C882343A8
:10166000CC8823431843108210BD002101804180A3
:101670008180C180704721B1828942F40052828109
:1016800004E082894DF6FF731A4082817047F0B5FD
:101690000346002400260025002040F66A17B942C0
:1016A00000D100BF1846C1F3421401F01F06012704
:1016B00007FA06F5012C01D10C3004E0022C01D10F
:1016C000103000E014301AB107682F43076002E0C1
:1016D0000768AF430760F0BD1AB1838A0B4383826A
:1016E00002E0838A8B4383827047028A4FF6F0734D
:1016F0001A400282028A0A430282704782894FF2AC
:10170000FF731A40828182890A438281704721B126
:10171000828942F00202828104E082894FF6FD73E1
:101720001A4082817047028A4FF6DF731A400282A4
:10173000028A0A430282704721B1028A42F480423F
:10174000028204E0028A4BF6FF731A40028270475D
:10175000C1F308028280704701468888C0F3080000
:101760007047818941F0010181817047028BD2B2BB
:101770000283028B42EA012202837047028B02F449
:101780007F420283028B0A430283704721B1828A1F
:1017900042F02002828204E0828A4FF6DF731A4010
:1017A0008282704721B1828A42F01002828204E074
:1017B000828A4FF6EF731A408282704721B1828A83
:1017C00042F00802828204E0828A4FF6F7731A40E0
:1017D0008282704721B1828942F40042828103E013
:1017E0008289C2F30E028281704721B1828A42F45B
:1017F0000062828204E0828A4FF2FF731A40828282
:101800007047828A4FF6FB731A408282828A0A43AB
:101810008282704721B1828A42F00202828204E011
:10182000828A4FF6FD731A4082827047024600207A
:10183000B1F5007F00D100BF13880B400BB1012030
:1018400000E00020704701F40072B2F5007F00D183
:1018500000BFCA430280704770B5024600240023CF
:101860000025002040F66A16B14200D100BFC1F346
:10187000421501F01F03012606FA03F3012D02D1E0
:101880009689334006E0022D02D1168A334001E0EA
:10189000968A33400C12012606FA04F41688344066
:1018A00013B10CB1012000E0002070BD10B5002282
:1018B000002340F66A14A14200D100BF0A1201249D
:1018C0009440A3B2DC43048010BD00000038014006
:1018D0000044004000480040004C004000500040E0
:1018E00040EA01039B0703D009E008C9121F08C0A2
:1018F000042AFAD203E011F8013B00F8013B521E22
:10190000F9D2704730B505462A460B4612F8010B4E
:1019100013F8014B08B1A042F8D01CB1002802D046
:101920006D1CF1E7284630BD421C10F8011B002950
:10193000FBD1801A704770B5064600F0D9FD0468E7
:1019400005460A220021304600F0C6F82C6070BD22
:1019500000F0004230F000400AD0C10D01F5607186
:10196000C0F3160042EA0151C20840071143704714
:1019700000200146704701F0004330B421F00041DF
:1019800050EA010206D00A0DA2F56072C1F31301FC
:10199000002A02DC30BC00207047440F44EAC10436
:1019A000C100E01830BC00EBC25000F0CDB830B53B
:1019B0000B46014600202022012409E021FA02F50D
:1019C0009D4205D303FA02F5491B04FA02F52844A7
:1019D000151EA2F10102F1DC30BD2DE9F05F0546D4
:1019E000002092469B4688460646814640241BE0DE
:1019F000284641464746224600F0B7FA53465A4623
:101A0000C01A914110D311461846224600F09EFAA2
:101A10002D1A67EB01084F4622460120002100F0F5
:101A200095FA17EB00094E41201EA4F10104DFDCFA
:101A3000484631462A464346BDE8F09F0FB400238E
:101A400000B589B00CA900910B996FF00042CB60F2
:101A50001E4B06931E4B07930423CDE901321D4A0A
:101A6000089202466B46002000F030FB09B05DF89A
:101A700014FB70B586B006464FF0FF300091CDE9FB
:101A80000101002015460C4604903246694604A820
:101A9000FFF7D4FF03460498211825B108B10A4680
:101AA00000E022462A6000280DD0002B02DD0098BD
:101AB000884208D0081B0094CDE9010432466946EB
:101AC00004A8FFF7BBFF06B070BD000005230008A7
:101AD00023230008B91F00082DE9F04791460F465F
:101AE00080460446002614F8015B2DB100F060FA30
:101AF0000068405DC007F6D12B2D02D02D2D18D0E7
:101B0000641E4A463946204600F01CFC27B139685D
:101B1000A14201D1C7F8008071054FF002040BD536
:101B20004042002803DD00F0E3FC0460A007BDE8AC
:101B3000F08746F48066E4E70028F8DA00F0D8FC85
:101B400004606FF00040F2E70029A8BF7047401C16
:101B5000490008BF20F00100704710B4B0FA80FCC3
:101B600000FA0CF050EA010404BF10BC704749B100
:101B7000CCF1200421FA04F411FA0CF118BF012170
:101B800021430843A3EB0C01CB1D4FEA00614FEA50
:101B9000102042BF002010BC704700EBC35010441F
:101BA0000029A4BF10BC7047401C490008BF20F0AA
:101BB000010010BC70472DE9FE4F804681EA03000A
:101BC000C00F0C46009021F0004123F00045B8EB17
:101BD0000200A94105D24046214690461C460B46CC
:101BE000024623F00040104347D0270DC7F30A00F8
:101BF000C3F30A510290401A019040286BDAC3F3F4
:101C0000130040F4801B0098924620B10023D2EBD1
:101C1000030A63EB0B0B01985946C0F14002504692
:101C200000F094F906460D4650465946019A00F0D8
:101C3000ACF910EB08006141002487EA115284EAF4
:101C4000E7731A4340D0009A62B3019A012A4FEA1F
:101C5000075215DC001B61EB02014FF0004202EA63
:101C60000752CDE90042001C41F5801132462B4657
:101C700000F0C6FB03B0BDE8F08F40462146F9E70F
:101C8000001B61EB0201001C41F5801300185B4151
:101C90002018A2F5001747EB030140EAD570B619EA
:101CA0006D4111E06D084FEA360645EAC0754FEA0E
:101CB0000752001B61EB0201001C41F5801149082D
:101CC0004FEA30000019514132462B4603B0BDE8BF
:101CD000F04F00F086BB0098012240000023D0EBBB
:101CE000020263EBE073009821464FEAE074B8EB20
:101CF000000061EB0401E9E783F000435BE781F05A
:101D0000004158E72DE9FE4F81EA030404F0004446
:101D100021F0004100944FF0000B23F0004350EA03
:101D200001045ED052EA03045BD0C3F30A54C1F34A
:101D30000A552C44A4F2F3340194A0FB0254C1F3DD
:101D4000130141F48011C3F3130343F4801301FB27
:101D5000024400FB034E840A970A44EA815447EA8E
:101D60008357A4FB076802958D0A05FB07854FEA98
:101D7000932C04FB0C542705029D4FEA065847EAB2
:101D80001637B5EB08056EEB070C870E920E47EA87
:101D9000811742EA8312A7FB0201B6EB0B0164EB49
:101DA00000042B0D43EA0C335E1844EB1C50DA465A
:101DB0005146E7FB0201C5F313044FEA0B3343EA34
:101DC00014534FEA0432019C43EA0603A4F10C04C5
:101DD0000294009CCDE900B400F012FB03B0BDE812
:101DE000F08F00200146F9E72DE9F04D81EA030468
:101DF00004F0004B21F0004514464FF0000A23F098
:101E0000004150EA050220D054EA01021DD0C5F37A
:101E10000A570246C5F31303C1F31300C1F30A5670
:101E200040F4801543F48013A7EB0608101BD64638
:101E300008F2FD3873EB050002D308F1010801E058
:101E400092185B41B8F1000F03DA00200146BDE8AB
:101E5000F08D00204FF48011064684460EE0171BDB
:101E600073EB050705D3121B63EB050306434CEA2E
:101E7000010C49084FEA300092185B4150EA010713
:101E8000EDD152EA030012D082EA040083EA050190
:101E9000084305D0101BAB4106D20122002306E007
:101EA00000224FF0004302E06FF0010253101AEBE2
:101EB00006004CEB085110EB0A0041EB0B01BDE8AA
:101EC000F04D00F08EBAC1F30A52C1F3130140F293
:101ED000FF3341F480119A4202DA00200146704734
:101EE00040F233439A42A2F2334202DC524200F003
:101EF0003CB800F02BB8000030B5041E71F10004AE
:101F000004DB4FF00044404264EB0101141E73F106
:101F1000000405DB1C464FF00043524263EB040310
:101F2000994208BF904230BD064C074D06E0E0687C
:101F300040F0010394E8070098471034AC42F6D310
:101F4000FEF7FAF8842E0008A42E0008202A04DBED
:101F5000203A00FA02F1002070479140C2F12003BC
:101F600020FA03F3194390407047202A04DB203AFB
:101F700021FA02F00021704721FA02F3D040C2F1A9
:101F800020029140084319467047202A06DBCB17F0
:101F9000203A41FA02F043EAE07306E041FA02F324
:101FA000D040C2F12002914008431946704700001A
:101FB00000487047802E000810B50446FFF7F8FF70
:101FC0000068005D00F0010010BD00002DE9FF4F2A
:101FD000087881B09946FF2805D0491C2D2804D0E7
:101FE0000024002308E000230BE00124F9E703EBC1
:101FF000830300EB4303491C0878FF28F7D104B1A1
:102000005B4200200090147801462D2C01D02B2C2F
:1020100004D1521C2D2C12D00024009400251678D7
:10202000FF2E0ED00A24A0FB04C801FB0481002768
:1020300000FB0711521C16EB0C006941EFE701246D
:10204000EBE7994450EA01020ED00024AA4D26463F
:10205000DFF8A88200F030FA82468B46B9F1000022
:1020600009DAC9F100071BE001980021C0E900115D
:1020700005B0BDE8F08F074612E0F80707D022460A
:102080002B4630464146FFF73DFE0646884622462F
:102090002B4610461946FFF735FE04460D467F10C5
:1020A000002FEAD1B9F1000F324643465046594657
:1020B00002DAFFF799FE01E0FFF724FE009A0AB169
:1020C00081F00041019AC2E90001D1E72DE9FF4FFB
:1020D0001F468DB0D7E901464FF0FF382E20454608
:1020E0004FF000090B90B9696D1C0E988847396A4A
:1020F000824688470028F6D1BAF1FF3F0AD024F47F
:10210000D064002E11DDBAF12B0F08D0BAF12D0FDB
:102110000BD102E0404611B0ABE744F48064B969EA
:102120006D1C0E9888478246761E6946600501D56B
:102130002D2000E02B208DF8000001F1010B0DF1A6
:10214000200809E0B9696D1C0E98884782460F98EF
:1021500044F40074761E0560002E02DDBAF1300FE3
:10216000F0D00B998A453ED144F0800406E00F99E7
:10217000681CA9F1010944F400740860B9696D1C78
:10218000761E0E98884782463028F0D02BE00B99B7
:102190008A4505D1200603D444F08004761E18E059
:1021A000504600F077FA08B30DF11301761E44F49F
:1021B00000748B4508D2AAF130000BF8010B200601
:1021C00007D5A9F1010003E0200602D409F10100BE
:1021D0008146A00502D50F99681C0860B9696D1C7D
:1021E0000E9888478246002ED1DC53E0002E51DD48
:1021F000BAF1650F02D0BAF1450F4BD1A00549D510
:10220000B9696D1C24F44074761E0E988847824686
:10221000002E0CDD2B2804D0BAF12D0F07D144F489
:102220008074B9696D1C0E9888478246761EE00559
:1022300001D52D2100E02B2108F8011BCDF82C80C1
:1022400021E00DF12901761E44F4007488450CD27A
:10225000AAF1300010F0FF0088F8000002D10B99BD
:10226000884509D908F1010806E0E00501D52448B0
:1022700001E042F20F708146B9696D1C0E988847E3
:1022800082460F980560002E04DD504600F002FAE9
:102290000028D6D1F9690E988847FF208BF80000F6
:1022A00088F800000020069007904B466A4608A96F
:1022B00006A8FFF78BFEA00502D46FF001002AE705
:1022C00014F0240F0AD0E00714D1DDE906123868B3
:1022D000031D3B600068C0E900120BE0DDE9060168
:1022E000FFF749FB0146E00704D13868021D3A6058
:1022F0000068016028460EE7000024400000F03F1F
:10230000F1D8FFFF426842B1016811F8013B23B1E7
:10231000521EC0E90012184670470121C160881E94
:10232000704742685AB1C368016843B983688B42F9
:1023300005D0491E521CC0E90012002070474FF022
:10234000FF3070472DE9F05F824600780027154680
:102350008B460AF10104B946302801D09DB113E043
:1023600014F8010B0127782803D0582801D045B173
:102370000AE00DB1102D07D10027102514F8010B2C
:1023800002E0082500E00A250026B0460EE005FB25
:10239000080005FB06F1012701EB10461FFA80F843
:1023A000B6F5803F00D3B94614F8010B294600F07A
:1023B00075F80028EBDABBF1000F05D00FB1641EF1
:1023C00000E05446CBF80040B9F1000F06D000F011
:1023D0008FF802210160C81EBDE8F09F48EA064060
:1023E000FAE710B5141E73F1000408DA401C41F13D
:1023F000000192185B411A4301D120F0010010BD89
:102400002DE9F04D92469B4611B1B1FA81F202E0FE
:10241000B0FA80F220329046FFF798FD04460F464E
:1024200040EA0A0041EA0B0153465A46084313D0DA
:10243000114653EA010019D0C8F140025046FFF797
:1024400094FD05460E46504659464246FFF77EFD2E
:10245000084305D0012004E020463946BDE8F08D50
:102460000020054346EAE0762C4337430A9863058B
:10247000E40AA0EB08000022FD0A44EA47540A30AF
:1024800002D500200146E9E7010510196941DDE99F
:10249000084500196941BDE8F04DA2E73A2800D28D
:1024A000303820F02002412A01D3A2F137008842BF
:1024B00001D34FF0FF3070470EB540F23342029225
:1024C0000022CDE900221346FFF79AFF03B000BDBA
:1024D0000FB4054B10B503A9044A029800F0E2F8C6
:1024E00010BC5DF814FB0000B3070008C00000201A
:1024F00000487047C4000020014800687047000091
:10250000C400002002E008C8121F08C1002AFAD146
:1025100070477047002001E001C1121F002AFBD163
:10252000704700000149086070470000C4000020A7
:102530002DE9FF5FDDE90220010DDDF838B002432F
:1025400018D044F61050A1F2FF3141430D140F98FA
:10255000012820D0A5EB0B00401C5FEA000A4FF0D9
:102560000004474EDFF81C91A046504616D5CAF12C
:10257000000728E00F98012443A2012808D0002179
:1025800000980F9BC0E90021C0E90243BDE8FF9F0E
:102590006FEA0B01F4E7CBF10000DEE7074612E03B
:1025A000F80707D02246334640464946FFF7AAFBC4
:1025B000804689462246334610461946FFF7A2FB5D
:1025C00004460E467F10002FEAD1DDE90201BAF180
:1025D000000F42464B4602DAFFF794FB01E0FFF79B
:1025E00003FC04460E460022284BFFF785FC03D867
:1025F0004FF0FF30014607E00022254B20463146D0
:10260000FFF7D9FAFFF75FFC102409E0002C0ADB82
:102610000A220023FFF7E1F9019B30321A55641EAC
:1026200050EA0102F2D1641C019AC4F1110314446E
:102630000F9A012A03D0012208430DD10AE0084372
:1026400004D000204FF0110B0F9080E7A3EB0B0597
:102650006D1E0DE05B4504DD4FF0000205F1010544
:1026600004E003DA4FF00002A5F10105002AECD0E6
:1026700000980F99C0E90231C0E9004586E70000E3
:10268000000024400000F03F300000000000F04354
:102690000000E03F30380A2801D2012070470020B6
:1026A000704700002DE9FF4F95B09B4689460646CE
:1026B00000250FE2252877D100242746F84A01217A
:1026C000059400E0044316F8013F203B01FA03F0B3
:1026D0001042F7D130782A2811D06FF02F033078CC
:1026E000A0F13002092A16D8059A44F0020402EB40
:1026F000820203EB42021044761C0590EFE759F882
:10270000042B0592002A03DA504244F40054059049
:1027100044F00204761C30782E2816D116F8010FEA
:1027200044F004042A280DD06FF02F023078A0F175
:102730003003092B09D807EB870302EB4303C718C3
:10274000761CF3E759F8047B761C30786C280FD0A0
:1027500006DC4C2817D068280DD06A2814D104E074
:10276000742810D07A280FD10DE044F400140AE048
:1027700044F4801401E044F440147278824202D19F
:1027800004F58014761C761C307866280BD013DC98
:10279000582877D009DC002875D04528F6D046287F
:1027A000F4D047281AD19DE118E0632835D0642879
:1027B00079D0652812D195E1702873D008DC67289C
:1027C000F1D069286FD06E280DD06F2806D1B5E002
:1027D00073282CD0752875D0782874D05A4617994C
:1027E00090476D1C75E1C4F30250022809D00328FC
:1027F0000DD0D9F8001004280DD00D6009F104099E
:1028000067E1D9F80010EA17C1E90052F6E7D9F8F4
:1028100000100D80F2E70D70F0E719F8041B8DF839
:10282000001000208DF80100EA46012003E059F86D
:1028300004AB4FF0FF3061074FF0000102D40DE010
:1028400008F101018846B9420FDA8045F8DB1AF831
:1028500008100029F4D108E008F1010188468142FE
:10286000FADB1AF808100029F6D105985B46A0EBB0
:10287000080721463846179A00F094FA284400EBDE
:10288000080507E04DE029E10DE01AF8010B5A4672
:1028900017999047B8F10108F7D25B4621463846B0
:1028A000179A13E142E00A220092C4F302524FF059
:1028B000000A022A08D059F804CB032A4FEAEC7127
:1028C0000AD00DE029E02AE009F1070121F0070212
:1028D000F2E802C1914609E00FFA8CFC4FEAEC7174
:1028E000042A03D14FFA8CFC4FEAEC71002907DA75
:1028F0000A460021DCF1000C61EB02012D2202E00E
:10290000220504D52B228DF80420012203E0E207E2
:1029100001D02022F7E7904659E00A2102E0102278
:102920000DE010214FF0000A00910BE010224FF053
:10293000000A44F004040827009203E008224FF044
:10294000000A0092C4F30252022A05D059F804CBBF
:102950000021032A08D009E009F1070121F007024C
:10296000F2E802C1914605E01FFA8CFC042A01D16D
:102970000CF0FF0C4FF00008220728D5702806D075
:10298000009B83F0100353EA0A0305D00EE04022B7
:102990008DF80420012208E05CEA010206D0302212
:1029A0008DF804208DF8050002229046009B83F0EC
:1029B000080353EA0A030AD15CEA010201D1620763
:1029C00005D530228DF804204FF001087F1E5828CD
:1029D00004D034A003900EA802900DE036A0F9E7D1
:1029E00053466046009AFEF7F8FF84460398825CDF
:1029F0000298401E029002705CEA0100F0D1029839
:102A000006A9081A00F1200A600702D524F48034D0
:102A100000E00127574502DDA7EB0A0000E0002097
:102A200000EB0A01009005984144401A0590E0032C
:102A300006D45B462146179A059800F0B3F9054481
:102A4000002706E001A85A46C05D179990476D1C03
:102A50007F1C4745F6DBE0030CD55B462146179A01
:102A6000059800F09FF9054404E030205A46179974
:102A700090476D1C0099481E00900029F5DC08E085
:102A8000029802995A460078491C0291179990477A
:102A90006D1CBAF10001AAF1010AF1DC65E1000048
:102AA0000928010030313233343536373839616224
:102AB00063646566000000003031323334353637E8
:102AC00038394142434445460000000000F058F9BF
:102AD0000544761C307800287FF4ECAD19B0284608
:102AE000BDE8F08F620700D4062709F1070222F043
:102AF000070CFCE80223E14603F000485FEA080CFB
:102B000002D00FF2702C0DE05FEA045C02D50FF2E8
:102B1000682C07E05FEAC47C02D00FF2602C01E071
:102B2000AFF2700C4FF0FF3823F00043CDF850C0E7
:102B300065280CD006DC452809D046281DD047283A
:102B40003DD13DE0662818D067287ED138E00021CD
:102B5000112F01DB112000E0781CCDE9000106A94E
:102B60000EA8FFF7E5FCDDE90F010E9A03910021A5
:102B7000009207F1010A04914DE04FF000400097E8
:102B8000CDE9011006A90EA8FFF7D2FCDDE90F027E
:102B900003920E9B11990022DDF80CA00093049281
:102BA00011B9791C00EB010AB7EB0A0004D4C0F19B
:102BB000FF3007F1010A0490AAEB0700019044E0FE
:102BC000012F00DA01270021112F01DD112000E083
:102BD0003846CDE9000106A90EA8FFF7A9FCDDE9FA
:102BE0000F010E9A0391002104910092BA46210729
:102BF0000CD40399514500DA8A46BAF1010F05DD7C
:102C0000009AAAF10101515C302908D0B84202DAD9
:102C100010F1040F06DA0121CDE9011015E0AAF147
:102C20000101E9E7002805DC049901440491AAEBBD
:102C3000000102E0411C514500DD8A460499401A1A
:102C4000401C01904FF000400290200704D40198EE
:102C5000504501DBCDF8048000208DF84F0002982C
:102C60000DF14F07B0F1004F25D02B200E900298A8
:102C70004FF0020800280CDA404202902D200E90FE
:102C800007E00A210298FEF792FE3031029007F821
:102C9000011DB8F10001A8F10108F2DC029800283A
:102CA000EFD1791E0E980870307800F0200040F0C7
:102CB000450007F8020D12A8C01B00F10708149880
:102CC000007800B1012000EB0A01019801EBE071EE
:102CD00005984144401A401E0590E00306D45B4627
:102CE0002146179A059800F05DF80544149800787D
:102CF00018B15A46179990476D1CE00324D55B46DE
:102D00002146179A059800F04DF805441CE00498F8
:102D1000002807DBDDE90301884203DD0098405C01
:102D2000179901E0179930205A469047049805F109
:102D30000105401C04900198401E019004D12E20F2
:102D40005A46179990476D1CBAF10001AAF1010A81
:102D5000DDDC05E017F8010B5A46179990476D1C0A
:102D6000B8F10001A8F10108F4DC5B462146179A8E
:102D70000598ABE62D0000002B00000020000000AD
:102D80002DE9F041044600251E461746880404D468
:102D900005E039462020B0476D1C641EF9D5284651
:102DA000BDE8F0812DE9F041044600251E4690461D
:102DB000C80301D5302700E02027880404D505E0AA
:102DC00041463846B0476D1C641EF9D52846BDE81B
:102DD000F08130B583B00446FFF78EFB0546002036
:102DE000CDE90000024621466846FEF742FE28462D
:102DF000FFF798FBDDE9000103B030BD0040404023
:102E000040404040404041414141414040404040BD
:102E10004040404040404040404040404005020269
:102E20000202020202020202020202020220202028
:102E30002020202020202002020202020202909084
:102E40009090909010101010101010101010101082
:102E500010101010101010100202020202028888D6
:102E600088888888080808080808080808080808E2
:102E700008080808080808080202020240000000CA
:102E8000FD2D0008A42E000800000020C80000004E
:102E9000042500086C2F0008C80000205004000022
:102EA0001425000800A24A040000000000000000F1
:102EB00001020304060708090000000000000000EA
:102EC0000000000000000000000000000000000002
:102ED00000000000000000000000000000000000F2
:102EE00000000000000000000000000000000000E2
:102EF00000000000000000000000000000000000D2
:102F000000000000000000000000000000000000C1
:102F100000000000000000000000000000000000B1
:102F200000000000000000000000000000000000A1
:102F30000000000000000000000000000000000091
:102F40000000000000000000000000000000000081
:102F5000000000000102030401020304060708093F
:0C2F600002040608000000000000000051
:0400000508000131BD
:00000001FF
